{
  "_format": "hh-sol-artifact-1",
  "contractName": "WavePortal",
  "sourceName": "contracts/wavePortal.sol",
  "abi": [
    {
      "inputs": [],
      "stateMutability": "nonpayable",
      "type": "constructor"
    },
    {
      "inputs": [],
      "name": "getTotalWaves",
      "outputs": [
        {
          "internalType": "uint256",
          "name": "",
          "type": "uint256"
        }
      ],
      "stateMutability": "view",
      "type": "function"
    },
    {
      "inputs": [
        {
          "internalType": "uint256",
          "name": "amount",
          "type": "uint256"
        }
      ],
      "name": "wave",
      "outputs": [],
      "stateMutability": "nonpayable",
      "type": "function"
    }
  ],
  "bytecode": "0x608060405234801561001057600080fd5b5061003c6040518060600160405280602581526020016108076025913961004160201b6101611760201c565b6101c4565b6100dd816040516024016100559190610142565b6040516020818303038152906040527f41304fac000000000000000000000000000000000000000000000000000000007bffffffffffffffffffffffffffffffffffffffffffffffffffffffff19166020820180517bffffffffffffffffffffffffffffffffffffffffffffffffffffffff83818316178352505050506100e060201b60201c565b50565b60008151905060006a636f6e736f6c652e6c6f679050602083016000808483855afa5050505050565b600061011482610164565b61011e818561016f565b935061012e818560208601610180565b610137816101b3565b840191505092915050565b6000602082019050818103600083015261015c8184610109565b905092915050565b600081519050919050565b600082825260208201905092915050565b60005b8381101561019e578082015181840152602081019050610183565b838111156101ad576000848401525b50505050565b6000601f19601f8301169050919050565b610634806101d36000396000f3fe608060405234801561001057600080fd5b50600436106100365760003560e01c80639a2cdc081461003b578063eaa81bc714610059575b600080fd5b610043610075565b6040516100509190610483565b60405180910390f35b610073600480360381019061006e9190610373565b6100c6565b005b60006100be6040518060600160405280602881526020016105d760289139600054600160009054906101000a900473ffffffffffffffffffffffffffffffffffffffff166101fa565b600054905090565b33600160006101000a81548173ffffffffffffffffffffffffffffffffffffffff021916908373ffffffffffffffffffffffffffffffffffffffff1602179055508060008082825461011891906104ba565b9250508190555061015e6040518060400160405280600d81526020017f257320686173207761766564210000000000000000000000000000000000000081525033610299565b50565b6101f78160405160240161017591906103f3565b6040516020818303038152906040527f41304fac000000000000000000000000000000000000000000000000000000007bffffffffffffffffffffffffffffffffffffffffffffffffffffffff19166020820180517bffffffffffffffffffffffffffffffffffffffffffffffffffffffff8381831617835250505050610335565b50565b61029483838360405160240161021293929190610445565b6040516020818303038152906040527fe3849f79000000000000000000000000000000000000000000000000000000007bffffffffffffffffffffffffffffffffffffffffffffffffffffffff19166020820180517bffffffffffffffffffffffffffffffffffffffffffffffffffffffff8381831617835250505050610335565b505050565b61033182826040516024016102af929190610415565b6040516020818303038152906040527f319af333000000000000000000000000000000000000000000000000000000007bffffffffffffffffffffffffffffffffffffffffffffffffffffffff19166020820180517bffffffffffffffffffffffffffffffffffffffffffffffffffffffff8381831617835250505050610335565b5050565b60008151905060006a636f6e736f6c652e6c6f679050602083016000808483855afa5050505050565b60008135905061036d816105bf565b92915050565b60006020828403121561038557600080fd5b60006103938482850161035e565b91505092915050565b6103a581610510565b82525050565b60006103b68261049e565b6103c081856104a9565b93506103d081856020860161054c565b6103d9816105ae565b840191505092915050565b6103ed81610542565b82525050565b6000602082019050818103600083015261040d81846103ab565b905092915050565b6000604082019050818103600083015261042f81856103ab565b905061043e602083018461039c565b9392505050565b6000606082019050818103600083015261045f81866103ab565b905061046e60208301856103e4565b61047b604083018461039c565b949350505050565b600060208201905061049860008301846103e4565b92915050565b600081519050919050565b600082825260208201905092915050565b60006104c582610542565b91506104d083610542565b9250827fffffffffffffffffffffffffffffffffffffffffffffffffffffffffffffffff038211156105055761050461057f565b5b828201905092915050565b600061051b82610522565b9050919050565b600073ffffffffffffffffffffffffffffffffffffffff82169050919050565b6000819050919050565b60005b8381101561056a57808201518184015260208101905061054f565b83811115610579576000848401525b50505050565b7f4e487b7100000000000000000000000000000000000000000000000000000000600052601160045260246000fd5b6000601f19601f8301169050919050565b6105c881610542565b81146105d357600080fd5b5056fe5765206861766520257320746f74616c2077617665732120546865206c6173742066726f6d202573a2646970667358221220971020fd0b56916a31e7d2ada2a03c2a1922e8ff39d8c9cfd18cce374d9f50b264736f6c63430008040033596f20796f2c204920616d206120636f6e747261637420616e64204920616d20736d617274",
  "linkReferences": {},
  "deployedLinkReferences": {}
}